:020000040800F2
:1000000000280020190D0008BD0C0008C30C0008D2
:10001000C90C0008CF0C0008D50C00080000000037
:10002000000000000000000000000000DB0C0008E1
:10003000E70C000800000000F30C0008FF0C0008AB
:10004000610D0008610D0008610D0008610D0008D8
:10005000610D0008610D0008610D0008610D0008C8
:10006000610D0008610D0008610D0008610D0008B8
:10007000610D0008610D0008610D0008610D0008A8
:10008000610D0008610D0008610D0008610D000898
:10009000610D0008610D0008610D0008610D000888
:1000A000610D0008610D0008610D0008610D000878
:1000B000610D0008610D000800000000610D0008DE
:1000C000610D00080000000000000000610D000844
:1000D00000000000610D0008610D00080000000034
:1000E000610D0008610D0008610D000800000000AE
:1000F0000000000000000000000000000000000000
:0C01000000000000000000005FF808F1A3
:10010C0010B5054C237833B9044B13B10448AFF345
:10011C0000800123237010BD0C00002000000000A3
:10012C006C1B000808B5034B1BB103490348AFF324
:10013C00008008BD00000000100000206C1B0008AF
:10014C0080B582B000AF786039607B68002B2AD113
:10015C0001224FF40051CE4801F0E2F801224FF495
:10016C008051CB4801F0DCF801224FF40061C84803
:10017C0001F0D6F801224FF48061C54801F0D0F8A7
:10018C0001224FF40071C24801F0CAF801224FF469
:10019C008071BF4801F0C4F801224FF40041BD4802
:1001AC0001F0BEF8D3E17B68012B40F0D0813B68B5
:1001BC00092B2AD100224FF40051B54801F0B0F8B8
:1001CC0000224FF48051B24801F0AAF800224FF4FB
:1001DC000061AF4801F0A4F800224FF48061AC48F4
:1001EC0001F09EF801224FF40071A94801F098F833
:1001FC0000224FF48071A64801F092F800224FF4CF
:10020C000041A44801F08CF8A1E13B68082B2AD1ED
:10021C0000224FF400519E4801F082F800224FF466
:10022C0080519B4801F07CF800224FF40061984803
:10023C0001F076F800224FF48061954801F070F8D7
:10024C0000224FF40071924801F06AF800224FF43A
:10025C0080718F4801F064F800224FF400418D4802
:10026C0001F05EF873E13B68072B2AD100224FF4B2
:10027C000051874801F054F800224FF48051844813
:10028C0001F04EF800224FF40061814801F048F86B
:10029C0001224FF480617E4801F042F801224FF4B4
:1002AC0000717B4801F03CF801224FF480717848D2
:1002BC0001F036F801224FF40041764801F030F895
:1002CC0045E13B68062B2AD100224FF400517048BF
:1002DC0001F026F801224FF480516D4801F020F80E
:1002EC0000224FF400616A4801F01AF800224FF422
:1002FC008061674801F014F800224FF400716448E3
:10030C0001F00EF800224FF48071614801F008F8FA
:10031C0000224FF400415F4801F002F817E13B68FE
:10032C00052B2AD100224FF40051594800F0F8FF58
:10033C0001224FF48051564800F0F2FF00224FF496
:10034C000061534800F0ECFF00224FF480615048EC
:10035C0000F0E6FF01224FF400714D4800F0E0FF81
:10036C0000224FF480714A4800F0DAFF00224FF46B
:10037C000041484800F0D4FFE9E03B68042B2AD147
:10038C0001224FF40051424800F0CAFF00224FF402
:10039C0080513F4800F0C4FF00224FF400613C48FC
:1003AC0000F0BEFF01224FF48061394800F0B8FF25
:1003BC0001224FF40071364800F0B2FF00224FF4D6
:1003CC008071334800F0ACFF00224FF400413148FB
:1003DC0000F0A6FFBBE03B68032B2AD100224FF4B0
:1003EC0000512B4800F09CFF00224FF4805128480C
:1003FC0000F096FF00224FF40061254800F090FFBA
:10040C0000224FF48061224800F08AFF01224FF451
:10041C0000711F4800F084FF01224FF480711C48CA
:10042C0000F07EFF00224FF400411A4800F078FFE4
:10043C008DE03B68022B2FD100224FF40051144861
:10044C0000F06EFF00224FF48051114800F068FF5D
:10045C0001224FF400610E4800F062FF00224FF4BD
:10046C0080610B4800F05CFF00224FF400710848DB
:10047C0000F056FF01224FF48071054800F050FF48
:10048C0000224FF40041034800F04AFF5FE000BF38
:10049C0000080140000C01403B68012B2AD10122CD
:1004AC004FF400512C4800F03BFF00224FF48051D8
:1004BC00294800F035FF00224FF40061264800F077
:1004CC002FFF01224FF48061234800F029FF012205
:1004DC004FF40071204800F023FF01224FF480718B
:1004EC001D4800F01DFF01224FF400411B4800F095
:1004FC0017FF2CE03B68002B29D100224FF4005150
:10050C00154800F00DFF00224FF48051124800F006
:10051C0007FF00224FF400610F4800F001FF00229A
:10052C004FF480610C4800F0FBFE00224FF4007188
:10053C00094800F0F5FE00224FF48071064800F0E7
:10054C00EFFE01224FF40041044800F0E9FE00BF29
:10055C000837BD4680BD00BF00080140000C0140BB
:10056C0080B582B000AF786039607B68002B25D1F4
:10057C0001228021CC4800F0D3FE01224021CA4840
:10058C0000F0CEFE01222021C74800F0C9FE012256
:10059C001021C54800F0C4FE01220821C24800F019
:1005AC00BFFE01224FF40041C04800F0B9FE012209
:1005BC004FF48041BD4800F0B3FEA1E17B68012BF4
:1005CC0040F09E813B68092B25D100228021B64842
:1005DC0000F0A6FE00224021B34800F0A1FE00224C
:1005EC002021B14800F09CFE00221021AE4800F002
:1005FC0097FE01220821AC4800F092FE00224FF435
:10060C000041AA4800F08CFE00224FF48041A7481C
:10061C0000F086FE74E13B68082B25D10022802176
:10062C00A14800F07DFE002240219F4800F078FE9A
:10063C00002220219C4800F073FE002210219A48D1
:10064C0000F06EFE00220821974800F069FE00229F
:10065C004FF40041954800F063FE00224FF48041B6
:10066C00924800F05DFE4BE13B68072B25D1002240
:10067C0080218D4800F054FE002240218A4800F071
:10068C004FFE00222021884800F04AFE0122102152
:10069C00854800F045FE01220821834800F040FE09
:1006AC0001224FF40041814800F03AFE01224FF440
:1006BC0080417E4800F034FE22E13B68062B25D1B8
:1006CC0000228021784800F02BFE01224021764840
:1006DC0000F026FE00222021734800F021FE0022AB
:1006EC001021714800F01CFE002208216E4800F019
:1006FC0017FE00224FF400416C4800F011FE00225E
:10070C004FF48041694800F00BFEF9E03B68052B83
:10071C0025D100228021644800F002FE01224021F4
:10072C00614800F0FDFD002220215F4800F0F8FD3B
:10073C00002210215C4800F0F3FD012208215A48E8
:10074C0000F0EEFD00224FF40041584800F0E8FDA7
:10075C0000224FF48041554800F0E2FDD0E03B68A8
:10076C00042B25D1012280214F4800F0D9FD002215
:10077C0040214D4800F0D4FD002220214A4800F0D1
:10078C00CFFD01221021484800F0CAFD01220821AA
:10079C00454800F0C5FD00224FF40041434800F0ED
:1007AC00BFFD00224FF48041404800F0B9FDA7E0A6
:1007BC003B68032B25D1002280213B4800F0B0FD83
:1007CC0000224021384800F0ABFD002220213648A1
:1007DC0000F0A6FD00221021334800F0A1FD0122FB
:1007EC000821314800F09CFD01224FF400412F48B4
:1007FC0000F096FD00224FF480412C4800F090FD53
:10080C007EE03B68022B25D100228021264800F097
:10081C0087FD00224021244800F082FD0122202186
:10082C00214800F07DFD002210211F4800F078FDCA
:10083C00002208211C4800F073FD01224FF40041F6
:10084C001A4800F06DFD00224FF48041174800F06B
:10085C0067FD55E03B68012B2AD10122802112480B
:10086C0000F05EFD002240210F4800F059FD0022EF
:10087C0020210D4800F054FD012210210A4800F0FF
:10088C004FFD01220821084800F04AFD01224FF4D7
:10089C000041064800F044FD01224FF4804103481A
:1008AC0000F03EFD2CE000BF000C014000080140B0
:1008BC003B68002B24D100228021134800F030FD2E
:1008CC0000224021104800F02BFD002220210E4870
:1008DC0000F026FD002210210B4800F021FD002223
:1008EC000821094800F01CFD00224FF40041074884
:1008FC0000F016FD01224FF48041044800F010FD79
:10090C0000BF0837BD4680BD000C01400008014007
:10091C0080B582B000AF00F01FFA00F0FFF800F0D5
:10092C0039F90A233B603B687B607B68002B01DC58
:10093C000A237B603B68DA0F13445B101A467B6812
:10094C00934271DD00220121734800F0E9FC012281
:10095C000421714800F0E4FC012202216E4800F0F1
:10096C00DFFC3B68DA0F13445B105B421A467B6872
:10097C00134419460120FFF7E3FB7A683B689A425F
:10098C0008D07A683B689A4221DA3B68023B7A6865
:10099C009A421CDB012210215F4800F0C1FC0022AE
:1009AC0040215D4800F0BCFC012220215A4800F097
:1009BC00B7FC3B68DA0F13445B105B421A467B684A
:1009CC001344023B19460120FFF7CAFD2CE03B689B
:1009DC00033B7A689A420CD03B68033B7A689A4294
:1009EC0022DA3B68DA0F13445B101A467B68934299
:1009FC001ADD01221021484800F092FC012240210E
:100A0C00454800F08DFC00222021434800F088FC72
:100A1C003B68DA0F13445B105B421A467B68134445
:100A2C0019460120FFF79CFD3B68DA0F13445B105D
:100A3C001A467B68934266DC00221021364800F08F
:100A4C006FFC01224021344800F06AFC0122202175
:100A5C00314800F065FC79680120FFF781FD3B68A7
:100A6C00DA0F13445B101A467B6893420FD03B6835
:100A7C00DA0F13445B101A467B6893421DDA3B680D
:100A8C00DA0F13445B10023B7A689A4215DB0122A1
:100A9C000121214800F044FC002204211E4800F0F2
:100AAC003FFC012202211C4800F03AFC7B68023B0F
:100ABC0019460120FFF744FB25E03B68DA0F13448D
:100ACC005B10033B7A689A420AD03B68DA0F1344F6
:100ADC005B10033B7A689A4215DA7B68002B12DDB7
:100AEC00012201210C4800F01BFC012204210A48C0
:100AFC0000F016FC00220221074800F011FC796876
:100B0C000120FFF71DFB7B68013B7B604FF47A7083
:100B1C0000F084F909E700BF0008014080B590B0EF
:100B2C0000AF07F1180328220021184601F010F835
:100B3C003B1D00221A605A609A60DA601A61022327
:100B4C00BB610123BB621023FB6200237B6307F1B3
:100B5C001803184600F0FCFB0346002B01D000F0F4
:100B6C006FF80F237B600023BB600023FB60002326
:100B7C003B6100237B613B1D0021184600F068FEA1
:100B8C000346002B01D000F05BF800BF4037BD4698
:100B9C0080BD000080B586B000AF07F108030022CD
:100BAC001A605A609A60DA60224B9B69214A43F0C2
:100BBC00040393611F4B9B6903F004037B607B6808
:100BCC001C4B9B691B4A43F008039361194B9B69AF
:100BDC0003F008033B603B6800224FF67F71164818
:100BEC0000F09EFB002248F2F801144800F098FB3C
:100BFC004FF67F73BB600123FB6000233B61022334
:100C0C007B6107F1080319460B4800F00FFA48F214
:100C1C00F803BB600123FB6000233B6102237B6173
:100C2C0007F108031946054800F000FA00BF183711
:100C3C00BD4680BD0010024000080140000C014080
:100C4C0080B400AF72B600BFFEE7000080B485B080
:100C5C0000AF154B9B69144A43F001039361124B8F
:100C6C009B6903F00103BB60BB680F4BDB690E4A49
:100C7C0043F08053D3610C4BDB6903F080537B60F2
:100C8C007B680A4B5B68FB60FB6823F0E063FB60EE
:100C9C00FB6843F08063FB60044AFB68536000BF51
:100CAC001437BD4680BC7047001002400000014064
:100CBC0080B400AFFEE780B400AFFEE780B400AFB5
:100CCC00FEE780B400AFFEE780B400AFFEE780B46F
:100CDC0000AF00BFBD4680BC704780B400AF00BF02
:100CEC00BD4680BC704780B400AF00BFBD4680BC21
:100CFC00704780B500AF00F075F800BF80BD80B4C0
:100D0C0000AF00BFBD4680BC70470000FFF7F7FF87
:100D1C000B480C490C4A002302E0D458C45004334D
:100D2C00C4188C42F9D3094A094C002301E0136022
:100D3C000432A242FBD300F0E7FEFFF7E9FD704757
:100D4C00000000200C000020B01B00080C0000204C
:100D5C002C000020FEE7000080B500AF084B1B689C
:100D6C00074A43F010031360032000F02BF90F2007
:100D7C0000F008F8FFF76AFF0023184680BD00BF9B
:100D8C000020024080B582B000AF7860124B1A6828
:100D9C00124B1B7819464FF47A73B3FBF1F3B2FB89
:100DAC00F3F3184600F035F90346002B01D001236C
:100DBC000EE07B680F2B0AD8002279684FF0FF30C9
:100DCC0000F00BF9064A7B681360002300E0012356
:100DDC0018460837BD4680BD0000002008000020E2
:100DEC000400002080B400AF054B1B781A46054B5D
:100DFC001B681344034A136000BFBD4680BC704798
:100E0C00080000202800002080B400AF024B1B68B3
:100E1C001846BD4680BC70472800002080B584B0C1
:100E2C0000AF7860FFF7F0FFB8607B68FB60FB6891
:100E3C00B3F1FF3F05D00A4B1B781A46FB681344ED
:100E4C00FB6000BFFFF7E0FF0246BB68D31AFA68ED
:100E5C009A42F7D800BF00BF1037BD4680BD00BF17
:100E6C000800002080B485B000AF78607B6803F088
:100E7C000703FB600C4BDB68BB60BA684FF6FF03E3
:100E8C001340BB60FB681A02BB68134343F0BF639B
:100E9C0043F40033BB60044ABB68D36000BF143713
:100EAC00BD4680BC704700BF00ED00E080B400AFD1
:100EBC00044BDB681B0A03F007031846BD4680BCD5
:100ECC00704700BF00ED00E080B483B000AF034674
:100EDC003960FB7197F90730002B0ADB3B68DAB2FB
:100EEC000C4997F907301201D2B20B4483F8002356
:100EFC000AE03B68DAB20849FB7903F00F03043BC4
:100F0C001201D2B20B441A7600BF0C37BD4680BC1E
:100F1C00704700BF00E100E000ED00E080B489B054
:100F2C0000AFF860B9607A60FB6803F00703FB61FF
:100F3C00FB69C3F10703042B28BF0423BB61FB69C6
:100F4C000433062B02D9FB69033B00E000237B61D1
:100F5C004FF0FF32BB6902FA03F3DA43BB681A4065
:100F6C007B699A404FF0FF317B6901FA03F3D94357
:100F7C007B680B40134318462437BD4680BC704732
:100F8C0080B582B000AF78607B68013BB3F1807FA5
:100F9C0001D301230FE00A4A7B68013B53600F2108
:100FAC004FF0FF30FFF790FF054B00229A60044B87
:100FBC0007221A60002318460837BD4680BD00BFC3
:100FCC0010E000E080B582B000AF78607868FFF781
:100FDC0049FF00BF0837BD4680BD80B586B000AF65
:100FEC000346B9607A60FB7300237B61FFF75EFFF9
:100FFC0078617A68B9687869FFF790FF024697F9CB
:10100C000F3011461846FFF75FFF00BF1837BD467B
:10101C0080BD80B582B000AF78607868FFF7B0FF14
:10102C00034618460837BD4680BD000080B48BB01F
:10103C0000AF7860396000237B6200233B6248E19B
:10104C0001227B6A02FA03F3FB613B681B68FA69B5
:10105C001340BB61BA69FB699A4240F037813B6827
:10106C005B68A34A93425ED0A14A934275D8A14AC9
:10107C00934258D09F4A93426FD89F4A934252D082
:10108C009D4A934269D89D4A93424CD09B4A9342C5
:10109C0063D89B4A934246D0994A93425DD8122B0F
:1010AC002AD8122B59D801A252F823F03311000878
:1010BC000D1100081F1100086111000867110008CC
:1010CC006711000867110008671100086711000814
:1010DC006711000867110008671100086711000804
:1010EC0067110008671100086711000867110008F4
:1010FC001511000829110008824A934213D02CE0E4
:10110C003B68DB683B6229E03B68DB6804333B628D
:10111C0024E03B68DB6808333B621FE03B68DB681C
:10112C000C333B621AE03B689B68002B02D1042312
:10113C003B6213E03B689B68012B05D108233B62A3
:10114C007B68FA691A6109E008233B627B68FA69DB
:10115C005A6103E000233B6200E000BFBB69FF2B38
:10116C0001D87B6801E07B6804337B61BB69FF2B92
:10117C0002D87B6A9B0002E07B6A083B9B003B61C8
:10118C007B691A680F213B6901FA03F3DB431A40B0
:10119C00396A3B6901FA03F31A437B691A603B68AD
:1011AC005B6803F08053002B00F09080564B9B69DA
:1011BC00554A43F001039361534B9B6903F00103C0
:1011CC00BB60BB68514A7B6A9B08023352F82330E0
:1011DC00FB607B6A03F003039B000F2202FA03F30C
:1011EC00DB43FA681340FB607B68494A93420DD09D
:1011FC007B68484A934207D07B68474A934201D1A7
:10120C00022304E0032302E0012300E000237A6AB6
:10121C0002F0030292009340FA681343FB603B49CF
:10122C007B6A9B080233FA6841F823203B685B68B1
:10123C0003F48013002B06D0384B9A683749BB69EE
:10124C0013438B6006E0354B9A68BB69DB4333492B
:10125C0013408B603B685B6803F40013002B06D0D3
:10126C002E4BDA682D49BB691343CB6006E02B4B40
:10127C00DA68BB69DB4329491340CB603B685B6888
:10128C0003F40033002B06D0244B5A682349BB6966
:10129C0013434B6006E0214B5A68BB69DB431F4983
:1012AC0013404B603B685B6803F48033002B06D023
:1012BC001A4B1A681949BB6913430B6006E0174BAC
:1012CC001A68BB69DB43154913400B607B6A013319
:1012DC007B623B681A687B6A22FA03F3002B7FF46B
:1012EC00AFAE00BF00BF2C37BD4680BC704700BFFF
:1012FC0000003210000031100000221000002110FC
:10130C0000001210000011100010024000000140FB
:10131C0000080140000C0140001001400004014095
:10132C0080B483B000AF78600B467B8013467B7033
:10133C007B78002B03D07A887B681A6103E07B886A
:10134C001A047B681A6100BF0C37BD4680BC70471D
:10135C0080B586B000AF78607B68002B01D101238B
:10136C006CE27B681B6803F00103002B00F08780A4
:10137C00924B5B6803F00C03042B0CD08F4B5B6817
:10138C0003F00C03082B12D18C4B5B6803F48033F5
:10139C00B3F5803F0BD1894B1B6803F40033002B52
:1013AC006CD07B685B68002B68D1012346E27B68BC
:1013BC005B68B3F5803F06D1804B1B687F4A43F4D2
:1013CC00803313602EE07B685B68002B0CD17B4B69
:1013DC001B687A4A23F480331360784B1B68774A76
:1013EC0023F4802313601DE07B685B68B3F5A02FAA
:1013FC000CD1724B1B68714A43F4802313606F4B02
:10140C001B686E4A43F4803313600BE06B4B1B6814
:10141C006A4A23F480331360684B1B68674A23F4D1
:10142C00802313607B685B68002B13D0FFF7ECFC08
:10143C00386108E0FFF7E8FC02463B69D31A642BDD
:10144C0001D90323FAE15D4B1B6803F40033002B35
:10145C00F0D014E0FFF7D8FC386108E0FFF7D4FCBB
:10146C0002463B69D31A642B01D90323E6E1534BA3
:10147C001B6803F40033002BF0D100E000BF7B6845
:10148C001B6803F00203002B63D04C4B5B6803F02A
:10149C000C03002B0BD0494B5B6803F00C03082B9F
:1014AC001CD1464B5B6803F48033002B16D1434BA5
:1014BC001B6803F00203002B05D07B681B69012B12
:1014CC0001D00123BAE13D4B1B6823F0F8027B6885
:1014DC005B69DB00394913430B603AE07B681B699D
:1014EC00002B20D0364B01221A60FFF78DFC38619F
:1014FC0008E0FFF789FC02463B69D31A022B01D99D
:10150C0003239BE12D4B1B6803F00203002BF0D04F
:10151C002A4B1B6823F0F8027B685B69DB002749C8
:10152C0013430B6015E0264B00221A60FFF76CFC8E
:10153C00386108E0FFF768FC02463B69D31A022BBE
:10154C0001D903237AE11D4B1B6803F00203002B26
:10155C00F0D17B681B6803F00803002B3AD07B6842
:10156C009B69002B19D0174B01221A60FFF74CFC1A
:10157C00386108E0FFF748FC02463B69D31A022B9E
:10158C0001D903235AE10D4B5B6A03F00203002BD4
:10159C00F0D0012000F09AFA1CE00A4B00221A60ED
:1015AC00FFF732FC38610FE0FFF72EFC02463B6977
:1015BC00D31A022B08D9032340E100BF00100240CC
:1015CC0000004242800442429E4B5B6A03F00203DD
:1015DC00002BE9D17B681B6803F00403002B00F09F
:1015EC00A6800023FB75974BDB6903F08053002B1F
:1015FC000DD1944BDB69934A43F08053D361914BEB
:10160C00DB6903F08053BB60BB680123FB758E4B19
:10161C001B6803F48073002B18D18B4B1B688A4A10
:10162C0043F480731360FFF7EFFB386108E0FFF7BA
:10163C00EBFB02463B69D31A642B01D90323FDE073
:10164C00814B1B6803F48073002BF0D07B68DB6844
:10165C00012B06D17B4B1B6A7A4A43F001031362C0
:10166C002DE07B68DB68002B0CD1764B1B6A754A2E
:10167C0023F001031362734B1B6A724A23F00403B9
:10168C0013621CE07B68DB68052B0CD16D4B1B6A6D
:10169C006C4A43F0040313626A4B1B6A694A43F0B9
:1016AC00010313620BE0674B1B6A664A23F00103CC
:1016BC001362644B1B6A634A23F0040313627B6856
:1016CC00DB68002B15D0FFF79FFB38610AE0FFF7B2
:1016DC009BFB02463B69D31A41F28832934201D9F3
:1016EC000323ABE0574B1B6A03F00203002BEED035
:1016FC0014E0FFF789FB38610AE0FFF785FB02462F
:10170C003B69D31A41F28832934201D9032395E005
:10171C004C4B1B6A03F00203002BEED1FB7D012B1B
:10172C0005D1484BDB69474A23F08053D3617B6872
:10173C00DB69002B00F08180424B5B6803F00C03EB
:10174C00082B61D07B68DB69022B46D13F4B002212
:10175C001A60FFF759FB386108E0FFF755FB0246AA
:10176C003B69D31A022B01D9032367E0354B1B6865
:10177C0003F00073002BF0D17B681B6AB3F5803F3C
:10178C0008D1304B5B6823F400327B689B682D4991
:10179C0013434B602B4B5B6823F474127B68196A00
:1017AC007B685B6A0B43274913434B60274B012231
:1017BC001A60FFF729FB386108E0FFF725FB0246AA
:1017CC003B69D31A022B01D9032337E01D4B1B684D
:1017DC0003F00073002BF0D02FE01C4B00221A609A
:1017EC00FFF712FB386108E0FFF70EFB02463B697E
:1017FC00D31A022B01D9032320E0124B1B6803F0F0
:10180C000073002BF0D118E07B68DB69012B01D150
:10181C00012313E00B4B5B68FB60FB6803F4803225
:10182C007B681B6A9A4206D1FB6803F470127B68D2
:10183C005B6A9A4201D0012300E000231846183756
:10184C00BD4680BD00100240007000406000424266
:10185C0080B584B000AF786039607B68002B01D113
:10186C000123D0E06A4B1B6803F007033A689A42E5
:10187C0010D9674B1B6823F0070265493B6813437B
:10188C000B60634B1B6803F007033A689A4201D064
:10189C000123B8E07B681B6803F00203002B20D007
:1018AC007B681B6803F00403002B05D0594B5B6865
:1018BC00584A43F4E06353607B681B6803F00803E9
:1018CC00002B05D0534B5B68524A43F46053536072
:1018DC00504B5B6823F0F0027B689B684D491343C7
:1018EC004B607B681B6803F00103002B40D07B68C6
:1018FC005B68012B07D1474B1B6803F40033002BAB
:10190C0015D101237FE07B685B68022B07D1414B2B
:10191C001B6803F00073002B09D1012373E03D4BCE
:10192C001B6803F00203002B01D101236BE0394B40
:10193C005B6823F003027B685B68364913434B609A
:10194C00FFF762FAF8600AE0FFF75EFA0246FB68FE
:10195C00D31A41F28832934201D9032353E02D4B21
:10196C005B6803F00C027B685B689B009A42EBD1CE
:10197C00274B1B6803F007033A689A4210D2244B9A
:10198C001B6823F0070222493B6813430B60204B72
:10199C001B6803F007033A689A4201D0012332E036
:1019AC007B681B6803F00403002B08D0194B5B68A1
:1019BC0023F4E0627B68DB68164913434B607B6859
:1019CC001B6803F00803002B09D0124B5B6823F44F
:1019DC0060527B681B69DB000E4913434B6000F0BF
:1019EC0021F802460B4B5B681B0903F00F030A49F5
:1019FC00CB5C22FA03F3094A1360094B1B681846A7
:101A0C00FFF7C0F9002318461037BD4680BD00BF54
:101A1C000020024000100240841B0008000000203F
:101A2C000400002080B487B000AF0023FB600023CB
:101A3C00BB6000237B6100237B6000233B611E4B5A
:101A4C005B68FB60FB6803F00C03042B02D0082BD3
:101A5C0003D027E0194B3B6127E0FB689B0C03F09C
:101A6C000F03174AD35C7B60FB6803F48033002BB5
:101A7C0010D0114B5B685B0C03F00103114AD35C73
:101A8C00BB607B680D4A02FB03F2BB68B2FBF3F34D
:101A9C007B6104E07B680C4A02FB03F37B617B698E
:101AAC003B6102E0054B3B6100BF3B6918461C37AC
:101ABC00BD4680BC704700BF0010024000127A0087
:101ACC00941B0008A41B000800093D0080B485B0DD
:101ADC0000AF78600A4B1B680A4AA2FB03235B0A1F
:101AEC007A6802FB03F3FB6000BFFB685A1EFA60C6
:101AFC00002BF9D100BF00BF1437BD4680BC704726
:101B0C0000000020D34D621070B500260C4D0D4C1A
:101B1C00641BA410A64209D100F022F800260A4D3D
:101B2C000A4C641BA410A64205D170BD55F8043BA9
:101B3C0098470136EEE755F8043B98470136F2E733
:101B4C00A81B0008A81B0008A81B0008AC1B000859
:101B5C0003460244934200D1704703F8011BF9E796
:101B6C00F8B500BFF8BC08BC9E467047F8B500BF7E
:081B7C00F8BC08BC9E4670474E
:101B84000000000000000000010203040607080929
:101B940002030405060708090A0B0C0D0E0F1010AA
:041BA400010200003A
:041BA80031010008FF
:041BAC000D0100081F
:0C1BB0000024F400100000000100000000
:0400000508000D19C9
:00000001FF
